:020000040800F2
:10000000480D00209D010008D32D0008DF290008BD
:10001000D12D00087D040008093A00080000000006
:10002000000000000000000000000000F72D0008A4
:100030007F04000800000000F52D0008F92D0008DD
:10004000B7010008B7010008B7010008B7010008B0
:10005000B7010008B7010008810400085105000835
:10006000A906000809070008B7010008B701000841
:10007000B7010008B7010008B7010008B701000880
:10008000B7010008B701000845020008B7010008E1
:10009000B7010008B7010008B7010008B701000860
:1000A000B7010008B7010008B7010008B701000850
:1000B000012F00080930000835300008B70100089A
:1000C000B7010008B7010008B7010008B701000830
:1000D000B7010008B7010008F9380008B7010008A7
:1000E000B7010008B7010008B7010008B701000810
:1000F000B7010008B7010008B7010008B701000800
:10010000000000000000000000000000B70100082F
:10011000B7010008B7010008B7010008B7010008DF
:10012000B7010008B7010008B7010008B7010008CF
:10013000B7010008B701000800000000000000003F
:10014000B7010008B7010008B7010008000000006F
:10015000000000000000000000000000000000009F
:100160000000000000000000B7010008B70100080F
:10017000B7010008000000000000000000000000BF
:1001800000000000B7010008DFF80CD000F048F8CC
:100190000048004779410008480D00200648804784
:1001A00006480047FEE7FEE7FEE7FEE7FEE7FEE75C
:1001B000FEE7FEE7FEE7FEE7992E0008890100084A
:1001C0000649074A0868504343F239021044086060
:1001D000400870470149086070470000D4000020C3
:1001E0006D4EC641421C10F8011B0029FBD1801A3C
:1001F000704730B50B46014600202022012409E05B
:1002000021FA02F59D4205D303FA02F5491B04FACF
:1002100002F52844151EA2F10102F1DC30BD0000F8
:10022000064C074D06E0E06840F0010394E8070043
:1002300098471034AC42F6D3FFF7AAFFBC4500083C
:10024000DC45000810B5164800F036FC144800F0F4
:100250002FFC00EB400040003F21B0FBF1F11148C2
:1002600006290BD2DFE801F003060F121518B6EECF
:10027000000A01E0B7EE000A80ED000ABDE8104078
:10028000074800F0FBBEB7EE080AF5E7B0EE000A3B
:10029000F2E7B0EE040AEFE7B0EE080AECE7000080
:1002A000E80000203000002070B504460068816836
:1002B00001F00301012926D10168C90723D0816813
:1002C00001F00D01012910D1816841F00201816026
:1002D00021680320086001F0A5F805460FE000BF83
:1002E00001F0A0F8401B022809D9606C40F0100012
:1002F0006064A06C40F00100A064012070BD206823
:100300008068C007ECD1002070BD000070B50446C5
:100310000068816801F00301012902D10168C90761
:1003200020D18168104A11420DD1816841F001014C
:10033000816001F077F805460FE000BF01F072F828
:10034000401B022809D9606C40F010006064A06C6A
:1003500040F00100A064012070BD20680068C04327
:10036000C007EBD1002070BD3F0000802DE9F047B1
:100370002D4CDFF8B88000276168D8F800002C4DBC
:100380002C4E4FF0010A814209DA3078752806D0E8
:1003900001230022491C206800F050F8A8B36168CE
:1003A000D8F800004FF0FF38814209DD307864282A
:1003B00006D043460022491E206800F03FF848B3AB
:1003C000DFF874902068D9F80010884209DD317890
:1003D000722906D000234246401E616800F02EF8C4
:1003E000F0B12068D9F80010884217DA31786C290A
:1003F00014D000230122401C616800F01FF800287F
:100400000CD1C5E9007A722007E0FFE7C5E900A733
:10041000642002E0C5E9008775203070BDE8F087F0
:10042000C5E900786C20F8E7C40600202000002011
:10043000400000202800002024000020F0B50D4CD2
:10044000074600202668032E12DD01240A4D0DE028
:1004500055F834C09444BC4507D105EBC40CDCF816
:1004600004C09C448C4500D10120641CB442EFDBE5
:10047000F0BD00003C000020C4060020FEE77047ED
:100480002DE9F041012000F0F3FEDFF8B4802D4F9C
:100490002D4D2E4E00240022F021384600F0BDFFE5
:1004A00014B1012C2FD015E001222021384600F094
:1004B000B4FF0121384600F0ABFF58B100F0B2FFA5
:1004C000296AFA31884205D900F0ACFF2862306809
:1004D000012809D0641C032CDDDB3846BDE8F0415F
:1004E0000122F02100F099BF98F8000044466428EA
:1004F00001D103F0BDFC00206860401E286075201B
:1005000020700124C7E701228021384600F085FFD2
:100510000121384600F07CFF68B100F083FF696A72
:10052000FA31884207D900F07DFF686230680128FF
:1005300003D0012030600224ADE70220FAE700007A
:1005400028000020000C0048400000203800002057
:100550002DE9F047022000F08BFE00244E4FDFF81B
:100560003C814F4E4F4DA1464FF0010A0022F02131
:10057000304600F052FF24B1012C24D0022C5AD076
:1005800042E001221021304600F047FF02213046B0
:1005900000F03EFFC0B300F045FFA96AFA3188427F
:1005A00032D900F03FFFA862386801282CD198F8B2
:1005B0000000722801D103F05BFC4FF0FF30C5E969
:1005C00000906C211EE001222021304600F025FF22
:1005D0000221304600F01CFFB0B100F023FFE96AB1
:1005E000FA31884210D900F01DFFE862386801280E
:1005F0000AD198F80000752801D103F039FCC5E94B
:1006000000A9642188F8001001228021304600F002
:1006100004FF0221304600F0FBFE78B300F002FF39
:10062000696BFA3188422CD900F0FCFE6863A86936
:10063000012824D025E001224021304600F0EDFEC3
:100640000221304600F0E4FEB0B100F0EBFE296B71
:10065000FA31884210D900F0E5FE28633868012895
:100660000AD198F8000044466C2801D103F000FC40
:10067000C5E9009A72202070032477E701E001F0B9
:1006800065F8641C042CF8DB3046BDE8F047012215
:10069000F02100F0C2BE0000380000202800002039
:1006A000000C00484000002070B5042000F0E0FD80
:1006B000134D0022F021284600F0AFFE01228021D8
:1006C000284600F0AAFE0421284600F0A1FE70B1E1
:1006D00000F0A8FE0B4CA16BFA31884207D900F05C
:1006E000A1FEA063E069012808D00120E06128464E
:1006F000BDE870400122F02100F08FBE0020F5E738
:10070000000C004840000020082000F0B1BD7047F8
:100710007047704770470000F0B595B00024009412
:1007200090F840202546012A19D0012780F8407012
:1007300003689A6852077CD44A681F26052A11D29A
:10074000D3F830C002EB4202520096402CEA060C6D
:100750000E6896404CEA060CC3F830C035E0022023
:1007600015B0F0BD0A2A0FD2D3F834C0521F02EBE5
:100770004202520096402CEA060C0E6896404CEA63
:10078000060CC3F834C020E00F2A0FD2D3F838C0CB
:100790000A3A02EB4202520096402CEA060C0E681E
:1007A00096404CEA060CC3F838C00EE0D3F83CC0C3
:1007B0000F3A02EB4202520096402CEA060C0E68F9
:1007C00096404CEA060CC3F83CC00268936813F0EC
:1007D0000C0F4FF0070374D1D1F800E0BEF10A0FFF
:1007E00010D39669AEF10A0E0EEB4E0C03FA0CFE16
:1007F00026EA0E06D1F808E00EFA0CFE46EA0E06CE
:1008000096610FE0D2F814C00EEB4E0603FA06FE16
:100810002CEA0E0CD1F808E00EFA06FE4CEA0E0C9B
:10082000C2F814C002684E69D2F80CC0CCF3C10CF7
:1008300000E0FDE04FEA4C0C06FA0CF6D1F810E0AF
:10084000DFF848C2BEF1010F42D0BEF1020F4DD019
:10085000BEF1030F58D0BEF1040F63D0166E91F8AD
:1008600000C006F0F846B6EB8C6F03D1166E26F08A
:10087000004616660268566E91F800C006F0F8460B
:10088000B6EB8C6F03D1566E26F0004656660268B2
:10089000966E91F800C006F0F846B6EB8C6F03D167
:1008A000966E26F0004696660268D66E91F800C0F5
:1008B00006F0F846B6EB8C6F03D1D66E26F00046F4
:1008C000D6660268966806F00306012E3AD136E035
:1008D000D2F860E00EEA0C0E91F800C046EA8C6691
:1008E0004EEA060E4EF000461666EAE7D2F864E0DD
:1008F0000EEA0C0E91F800C046EA8C664EEA060E2F
:100900004EF000465666DCE7D2F868E00EEA0C0EC0
:1009100091F800C046EA8C664EEA060E4EF000469C
:100920009666CEE7D2F86CE00EEA0C0E91F800C0A5
:1009300046EA8C664EEA060E4EF00046C0E71668A0
:10094000F6077AD1CE68012E06D052F8B03F0E7865
:10095000B740BB43136021E052F8B06F91F800C07C
:1009600007FA0CF73E4316600A680A2A0BD306689A
:10097000B769093A02EB420293409F438B68934068
:100980001F43B7610AE007687E69521C02EB42020E
:1009900093409E438B6893401E437E6103684FF0F3
:1009A000A0473B4EBB4201D0B34201D1394A00E0DF
:1009B000394A0968102904D0112907D012290AD010
:1009C0003BE0D2F808C04FEA0C2C08E0D2F808C08F
:1009D0004FEACC1C03E0D2F808C04FEA4C2CBCF123
:1009E000000F2ADBBB420DD0B34201D100970CE0CF
:1009F0002A4EDFF8ACC0B34202D1CDF800C004E00B
:100A0000634501D1009600E000959E6806F003065C
:100A1000012E02D11E68F6070AD1009E8EB1B6687B
:100A200006F00306012E0CD1009E3668F60708D0AA
:100A3000416C41F020014164012480F8405020467F
:100A40008EE6102908D011291AD01229F5D1916803
:100A500041F480019160F0E7BB42EED1916841F42E
:100A6000000191600F49104A0968B1FBF2F101EBF6
:100A70008101490000E0491E00910029FBD1DCE71B
:100A8000BB42DAD1916841F08071E3E700F0FF8367
:100A90000001005000030050000700500004005007
:100AA00000050050D000002040420F007047704702
:100AB0000068006C704700002DE9F04104460068B2
:100AC0000168C34FC34DC44E49074FF0A04802D53B
:100AD0004168490705D40168090761D541680907DC
:100AE0005ED5616CC90603D4616C41F40071616428
:100AF0004146884201D0B04202D1D1F8082300E03B
:100B00003A6812F01F0F1BD0884201D0B04202D1C8
:100B1000D1F8082300E03A6802F01F02052A0FD03E
:100B2000884201D0B04202D1D1F8082300E03A68EF
:100B300002F01F02092A03D0884201D0A84201D145
:100B4000C16803E0B04200D02946C968C26812F407
:100B5000406F1FD189041DD4016809071AD5816827
:100B600049070FD4416821F00C014160606C20F40A
:100B700080706064606CC0040CD4606C40F0010054
:100B8000606407E0606C40F010006064A06C40F0AE
:100B90000100A0642046FFF789FF21680C2008604F
:100BA00020680168890602D54168890605D4016874
:100BB00049066ED5416849066BD5616C41F4005118
:100BC00061644246904201D0B04202D1D2F808138B
:100BD00000E0396811F01F0F1CD0904201D0B042E4
:100BE00002D1D2F8081300E0396801F01F0105298D
:100BF00010D04146884201D0B04202D1D1F808332A
:100C000000E03B6803F01F03092B03D0884201D0AA
:100C1000A84201D1C16803E0B04200D02946C968AA
:100C2000C36C13F0C00F07D08B0154D4C36813F406
:100C3000406F50D189044ED4016849064BD5114606
:100C4000884201D0B04202D1D1F8082300E03A68CE
:100C500012F01F0F1BD0884201D0B04202D1D1F850
:100C6000082300E03A6802F01F02062A0FD08842EB
:100C700001D0B04202D1D1F8082300E03A6802F076
:100C80001F02072A03D0884201D0A84202D1C168BE
:100C900004E026E0B04200D02946C96889021AD48F
:100CA000816809070FD4416821F060014160606CE0
:100CB00020F480506064606CC0050CD4606C40F01F
:100CC0000100606407E0606C40F010006064A06C9C
:100CD00040F00100A0642046FFF719FD2168602064
:100CE00008602068016809060CD54068000609D52F
:100CF000606C40F480306064204600F095F9216813
:100D00008020086020680168C9050DD54068C005CD
:100D10000AD5606C40F4003060642046FFF7F9FCAF
:100D200021684FF4807008602068016889050DD53E
:100D3000406880050AD5606C40F4802060642046DD
:100D4000FFF7E8FC21684FF4007008602068016834
:100D5000C90622D54168C9061FD5A16B01290ED04D
:100D6000404501D0B04201D11C4901E01849083981
:100D70008A68D20628D0886800F4404050B1606C80
:100D800040F480606064A06C40F00200A0642046E3
:100D9000FFF78DFE21681020086020680168490572
:100DA00010D5416849050DD5616C41F480416164FD
:100DB000A16C41F00801A1644FF4806101602046FC
:100DC000FFF7A6FCBDE8F081C068C007D6E70000C9
:100DD00008070050000400500001005000030050BC
:100DE000F0B54FF0000695B0040037463546009642
:100DF00005D0606CC00648D4606C18B133E00120A7
:100E000015B0F0BDA5642565E56484F84050204622
:100E100000F00CF920688068C00024D42046FFF759
:100E200043FA0646606CC0061DD4E6B9606C20F437
:100E3000885040F0020060642068816821F04051D1
:100E400081602068816841F0805181606D486E4901
:100E50000068B0FBF1F000EB8000400000E0401EB5
:100E600000900028FBD120688168C90002D5806805
:100E700080000AD5606C20F0020040F01000606431
:100E8000A06C40F00100A0640126606CC00675D41F
:100E9000002E73D12068816849076FD4616C21F4FA
:100EA000807141F0020161644FF0A04E574B7045D4
:100EB00001D0984201D1564A00E0564ADFF858C1A5
:100EC0005649704501D100930EE0984202D1CDF809
:100ED00000E009E0884202D1CDF800C004E060459E
:100EE00001D1009100E00095836803F00303012B1A
:100EF00002D10068C00710D1009840B1806800F0AE
:100F00000300012803D100980068C00705D190684C
:100F1000636820F4403018439060D4E90220104305
:100F2000A26B012A02D04FF4805300E00023E26953
:100F300043EA42331843636A3843012B0AD1F2B1C2
:100F4000626C22F0020242F020026264A26C42F063
:100F50000102A264E26A012A21D023688B4201D0F7
:100F6000634518D14FF430774FF4E071BA4213D093
:100F70004FF480739A420AD139460DE038E0228D51
:100F8000274B03EB4242024342F48030E2E78A42BD
:100F900001D1194600E011460143206B0843216846
:100FA0008A6812F00C0F0AD1CA6844F202039A430D
:100FB000CA60A169626B890341EA42010843226861
:100FC000D168184B19400143D1602069012820687D
:100FD000016B21F00F0102D1226A521E11430163FD
:100FE000A564606C20F0020040F00100606406E03F
:100FF000606C20F0020040F0100060640126304672
:10100000FEE60000D000002040420F00000100502A
:10101000000300500007005000050050000400507D
:101020000000FEFF07C0F0FF7047000000B5006839
:10103000104987B088421BD10F48416941F0805167
:1010400041614069694600F0805005901020009091
:1010500003200190002002904FF0904000F014F91E
:1010600000220121122000F03FFB122000F030FB93
:1010700007B000BD00010050001002402DE9F04112
:10108000044600688068400770D494F84000012846
:101090000CD0012084F840002046FFF737F9030008
:1010A0004FF0000605D084F840609EE00220BDE8C5
:1010B000F081606C40F60161884340F480706064A8
:1010C00020684FF0A0414A4A4A4D884201D09042E0
:1010D00002D1D1F8087300E02F6817F01F0F464FB8
:1010E00003D0884201D0B8420BD1D4F844C02CF4CC
:1010F000801CC4F844C0D0F80CC05FEA8C1C14D427
:101100001BE0D4F844C04CF4801CC4F844C09042A6
:1011100002D1D1F80CC005E0DFF8DCC00CF10C0CFA
:10112000DCF800C01CF0007F07D0D4F844C02CF4D9
:10113000005C4CF4805CC4F844C0D4F844C05FEA5E
:10114000CC4C06D5D4F848C02CF0060CC4F848C0E6
:1011500000E0A66484F840601C26066060690828E8
:101160002068466803D046F00C0607E03CE026F015
:10117000040646602068466846F008064660A06B94
:10118000012804D12068466826F0100646602068D1
:10119000884201D0904202D1D1F8084300E02C6887
:1011A00014F01F0F1BD0884201D0904202D1D1F819
:1011B000084300E02C6804F01F04052C0FD088427F
:1011C00001D0904202D1D1F8082300E02A6802F051
:1011D0001F02092A03D0884201D0B84205D1816894
:1011E00041F00401816000E0022318465FE700003F
:1011F00000010050080700500004005010B590F89E
:1012000021100024022903D004218163012418E065
:1012100001680A6822F00E020A6001680A6822F07A
:1012200001020A6090F84020C36B012101FA02F22A
:101230005A6080F82110002180F82010416B01B124
:101240008847204610BD000070B5044600F0EAF85B
:101250000546601C02D004480078044400F0E2F81F
:10126000401BA042FAD370BDC400002070470000AC
:10127000044910B50A68024202D00860FFF7F6FF81
:1012800010BD0000140401402DE9F84FDFF864B1EF
:1012900000234FF0010C4FF0030A4FF00F090BF140
:1012A000040EA0E00CFA03F6324072D04C68022C17
:1012B00001D0122C0ED1DC0800EB8408D8F82040B5
:1012C0005D07EF0E09FA07F5AC430D69BD402543F4
:1012D000C8F8205007685D0091F804800AFA05F408
:1012E00008F00308A74308FA05F848EA0708C0F819
:1012F00000804F68012F05D0022F03D0112F01D09D
:10130000122F11D18768D1F80C80A74308FA05F88D
:1013100048EA0708C0F808804768B7430E79C6F363
:1013200000169E403E434660C668A6438C68AC40AB
:101330003443C4604C68E40054D52F4CA56945F093
:101340000105A561A46923F0030504F001040094DC
:101350002A4C2E19B4689D072F0F09FA07F5AC43E4
:10136000B0F1904F04D0264DA84203D1012512E0E0
:10137000002510E0234DA84201D102250BE0224DAB
:10138000A84201D1032506E0204DA84202D1042540
:1013900001E027E00525BD402543B560DBF80040AE
:1013A0005D464E689443F60300D514432C60DEF886
:1013B000004075464E689443B60300D514432C6034
:1013C0000C4D08352C684E689443F60200D5144342
:1013D0002C60084D0C352C684E689443B60200D53D
:1013E00014432C605B1C0A6832FA03F47FF45AAF92
:1013F000BDE8F88F000401400010024000000140E9
:101400000004004800080048000C00480010004894
:101410000069084000D0012070470AB1816170471F
:10142000816270470148806870470000C400002056
:1014300090F84120202A24D190F84020012A20D081
:10144000012280F84020242280F84120026813689D
:1014500023F0010313600268136823F480531360C0
:10146000026813680B43136001680A6842F00102C6
:101470000A60202180F84110002180F840100846C1
:1014800070470220704790F84120202A22D190F81E
:101490004020012A1ED0012280F84020242280F81A
:1014A00041200268136823F0010313600268136887
:1014B00023F4706343EA0121116001680A6842F075
:1014C00001020A60202180F84110002180F84010BC
:1014D000084670470220704770B5040004D094F8A5
:1014E0004100002510B106E0012070BD84F8405095
:1014F000204600F04DF8242084F84100206801685F
:1015000021F0010101606068216820F070600861CD
:101510002068816821F400418160E0680128A068AA
:1015200007D040F4044021688860E068022803D0B6
:1015300006E040F40040F6E721684FF400604860A0
:1015400020684168114A114341602068C16821F454
:101550000041C160D4E904010843A16940EA0120C7
:101560002168C860D4E90701084321680860206841
:10157000016841F0010101606564202084F84100A8
:10158000256384F84250002070BD000000800002F6
:1015900000B500680E4987B0884216D1C02000907F
:1015A0001220019001200290032003900420049057
:1015B00069460848FFF768FE0748C16941F4001111
:1015C000C161C06900F40010059007B000BD0000C3
:1015D00000540040000400480010024002488168A6
:1015E0000278114481607047C4000020074810B59C
:1015F000016841F010010160032000F095F800201F
:1016000000F006F800F024F8002010BD0020024091
:1016100070B50D4D04464FF47A712878B1FBF0F0A7
:101620000A490968B1FBF0F000F087FE48B9102CB8
:1016300007D200222146501E00F056F800206C60B0
:1016400070BD012070BD0000C4000020D00000204B
:101650001E4808B5816941F001018161816901F08D
:1016600001010091C16941F08051C161C06900F080
:1016700080500090052000F057F8002211466FF0CE
:101680000B0000F031F8002211466FF00A0000F064
:101690002BF8002211466FF0090000F025F8002217
:1016A0001146501F00F020F800221146101F00F0D4
:1016B0001BF800221146901E00F016F80022BDE82B
:1016C00008401146501E00F00FB800000010024004
:1016D00000F01F02012191404009800000F1E0204C
:1016E000C0F8001170470000F0B40E4B1B680C46A8
:1016F000C3F30223C3F10705042D00D90425191DE6
:10170000072901D2002300E0DB1E012606FA05F1BD
:10171000491E214099409E40761E16403143F0BC40
:1017200001F058BB0CED00E0064900F00702086824
:101730004FF6FF03184040EA0220034A10430860B6
:10174000704700000CED00E00000FA05BFF34F8F7A
:1017500005480168054A01F4E06111430160BFF3E7
:101760004F8F00BFFDE700000CED00E00400FA051C
:1017700070B504004FF0000604D094F87103002502
:1017800010B106E0012070BD84F87053204600F0CF
:1017900043F8032084F8710301220CE0C6EBC60075
:1017A00004EB800080F8292000F8286F761CC570B3
:1017B000C560056145616068B042EFD8002010E067
:1017C000C0EBC00104EB810181F8CD5181F8CC015F
:1017D00081F8CF51C1F8D851C1F8DC51401CC1F893
:1017E000E05161688142EBD82068A0F84020206871
:1017F000A0F840502068A0F844502068A0F850504D
:1018000021684FF43F40A1F8400084F8245084F848
:101810007123002070BD000000B500680F4987B03B
:10182000884218D14FF4C05000900220019000204F
:101830000290032003900E20049069464FF09040E0
:10184000FFF722FD0648C16941F40001C161C0698A
:1018500000F40000059007B000BD0000005C0040EF
:10186000001002402DE9F84F04460068804DC00387
:101870006FD5E8690026C00008D4E86940F08050C0
:10188000E861E869012600F080500090794801681D
:10189000C90512D40168804641F480710160FFF7E8
:1018A000C1FD074605E000BFFFF7BCFDC01B642873
:1018B00035D8D8F80000C005F6D5286A10F4407075
:1018C00053D0A18801F4407181424ED0286A4FF470
:1018D000803191FAA1F2B2FA82F29700664A4FF093
:1018E0000108174420F44070C7F8008491FAA1F170
:1018F000B1FA81F102EB81010023C1F800342862C2
:10190000C00732D0FFF78EFD074641F2883A4FF00C
:10191000020907E0FFF786FDC11B514502D90320EC
:10192000BDE8F88F99FAA9F1B1FA81F141F04001CF
:101930004846B8EB511F01D129680CE090FAA0F19C
:10194000B1FA81F141F04001B0EB511F02D1296A97
:1019500001E015E0696A99FAA9F0B0FA80F000F0A8
:101960001F0008FA00F21142D4D0286A616820F4FE
:101970004070084328621EB1E86920F08050E86199
:101980002078C00705D0286BA16820F00300084329
:1019900028632078800705D5286BE16820F4403063
:1019A000084328632078400705D5286B216920F477
:1019B0004020084328632078800605D5286BE1691C
:1019C00020F01000084328632068800305D568686C
:1019D000A16B20F48000084368602078400605D59C
:1019E000286B216A20F02000084328632078000734
:1019F00005D5286B616920F44010084328632078DE
:101A0000C00605D5286BA16920F44000084328636F
:101A10002088800505D56868E16A20F40000084345
:101A200068602078000605D5E86A616A20F4F870DD
:101A30000843E8622088C00505D5E86AA16A20F459
:101A400078500843E8622088C00405D5286B216BD4
:101A500020F48070084328632088800405D5286B13
:101A6000616B20F4007008432863002058E70000F1
:101A70000010024000700040000042422DE9F04793
:101A80000F46050069D04A4E306800F00700B842A2
:101A900009D2306820F0070038433060306800F029
:101AA0000700B84259D12878424C800705D56068B4
:101AB000A96820F0F000084360602878C0073DD096
:101AC0006968012001290DD0022923D05FF00203AB
:101AD00093FAA3F2B2FA82F242F02002520904D041
:101AE000226803E04FF40033F2E7626A93FAA3F34B
:101AF000B3FA83F303F01F03984002422DD06068CD
:101B000020F0030008436060FFF78CFC804641F240
:101B100088390CE04FF00073DAE700BFFFF782FC72
:101B2000A0EB0801494502D90320BDE8F0876068B1
:101B3000696800F00C00B0EB810FEFD1306800F065
:101B40000700B8420BD9306820F0070038433060F6
:101B5000306800F00700B84201D00120E5E728789E
:101B6000400705D56068E96820F4E06008436060DC
:101B70002878000706D56068296920F4605040EA9B
:101B8000C100606000F052F86168F02292FAA2F29F
:101B900001F0F001B2FA82F2D140074A515CC8402C
:101BA000064908600020FFF733FD0020BDE7000074
:101BB0000020024000100240A4450008D000002090
:101BC0000148006870470000D0000020084809491B
:101BD000006849684FF4E06292FAA2F201F4E06111
:101BE000B2FA82F2D140044A515CC840704700000A
:101BF000D000002000100240B44500080848094900
:101C0000006849684FF4605292FAA2F201F4605100
:101C1000B2FA82F2D140044A515CC84070470000D9
:101C2000D000002000100240B4450008144B10B54D
:101C30005A68144802F00C0104291DD008291BD150
:101C40004FF4701494FAA4F402F47011B4FA84F40A
:101C5000E1400D4CDB6A615C0F2494FAA4F403F0BC
:101C60000F03B4FA84F4E340074C1034D203E35C6E
:101C700003D5B0FBF3F0484310BD0448484310BD02
:101C80000010024000127A008445000800093D005F
:101C90002DE9F84F040071D02078FB4DC0074FF0BC
:101CA000010625D068687704C0F38100012807D0B9
:101CB0006868C0F3810002281BD16868C00318D58A
:101CC00097FAA7F0B0FA80F040F02000400901D068
:101CD000286800E0686A97FAA7F1B1FA81F101F08B
:101CE0001F0106FA01F1084265D060680028D2D0D1
:101CF00061E06068B0F5803F0BD010B1B0F5A02F67
:101D000017D0286820F480302860286820F48020CC
:101D100002E0286840F480302860E86AA16820F07A
:101D20000F000843E862606820B3FFF77BFB804642
:101D30000AE0286840F480202860EAE7FFF772FB99
:101D4000A0EB0800642872D897FAA7F0B0FA80F0E8
:101D500040F02000400901D0286800E0686A97FA46
:101D6000A7F1B1FA81F101F01F0106FA01F1084271
:101D7000E4D020E0FFF756FB804607E0C7E000BF55
:101D8000FFF750FBA0EB08006428DCD897FAA7F017
:101D9000B0FA80F040F02000400901D0286800E04F
:101DA000686A97FAA7F1B1FA81F101F01F0106FA0A
:101DB00001F10842E4D12078DFF8D08280074FF0AB
:101DC000000A4FF0020759D568684FF0F80B10F081
:101DD0000C0F07D06868C0F3810002281BD1686827
:101DE000C00318D497FAA7F0B0FA80F040F02000B2
:101DF000400901D0286800E0686A97FAA7F1B1FAB3
:101E000081F101F01F0106FA01F108422BD020698F
:101E100001287CD127E0206988B396FAA6F0B0FAB1
:101E200080F048F82060FFF7FDFA814606E055E1B2
:101E3000FFF7F8FAA0EB0900022884D897FAA7F078
:101E4000B0FA80F040F02000400901D0286800E09E
:101E5000686A97FAA7F1B1FA81F101F01F0106FA59
:101E600001F10842E4D028689BFAABF26169B2FA4A
:101E700082F220F0F80091400843286025E0FFE757
:101E800096FAA6F1B1FA81F148F821A0FFF7CAFA53
:101E9000814605E0FFF7C6FAA0EB09000228CCD87E
:101EA00097FAA7F0B0FA80F040F02000400901D086
:101EB000286800E0686A97FAA7F1B1FA81F101F0A9
:101EC0001F0106FA01F10842E4D1207800076AD523
:101ED000A069A0B396FAA6F0B0FA80F008EB8000F3
:101EE000C0F88064FFF79EFA814605E0FFF79AFA92
:101EF000A0EB09000228A0D897FAA7F0B0FA80F06A
:101F000040F06000B6EB501F02D128680CE077E18A
:101F100097FAA7F0B0FA80F040F06000B7EB501FDE
:101F200001D1286A00E0686A97FAA7F1B1FA81F155
:101F300001F01F0106FA01F21042D7D033E0FFE7AB
:101F400096FAA6F0B0FA80F008EB8000C0F880A402
:101F5000FFF768FA814605E0FFF764FAA0EB090095
:101F600002289CD897FAA7F0B0FA80F040F0600001
:101F7000B6EB501F01D128680BE097FAA7F0B0FA32
:101F800080F040F06000B7EB501F01D1286A00E0FC
:101F9000686A97FAA7F1B1FA81F101F01F0106FA18
:101FA00001F21042D8D12078400774D5E8694FF08B
:101FB0000009C00009D4E86940F08050E861E86990
:101FC0004FF0010900F08050009031480168C905C8
:101FD00012D4016841F480710160FFF723FA83464F
:101FE00006E000BFFFF71EFAA0EB0B00642875D8CF
:101FF00027480068C005F5D5E06801280AD008B177
:10200000052811D0286A20F001002862286A20F0F3
:10201000040002E0286A40F001002862E068C8B3CA
:10202000FFF700FA83460DE0286A40F004002862BA
:10203000F0E700BFFFF7F6F9A0EB0B0141F28830A3
:1020400081424BD897FAA7F0B0FA80F040F04000F8
:10205000B6EB501F01D128680BE097FAA7F0B0FA51
:1020600080F040F04000B7EB501F01D1286A00E03B
:10207000686A97FAA7F1B1FA81F101F01F0106FA37
:1020800001F21042D6D035E000100240000042427A
:102090000070004000E034E0FFF7C4F9834607E039
:1020A000FFF7C0F9A0EB0B0141F28830814215D84F
:1020B00097FAA7F0B0FA80F040F04000B6EB501F5E
:1020C00001D128680CE097FAA7F0B0FA80F040F050
:1020D0004000B7EB501F02D1286A01E083E0686A34
:1020E00097FAA7F1B1FA81F101F01F0106FA01F2A6
:1020F0001042D5D1B9F1000F03D0E86920F080502B
:10210000E861E06980B36968C1F38101022977D091
:102110004FF080714F00022809D091FAA1F0B0FA77
:1021200080F048F820A0FFF77DF904465EE05046B5
:102130008A4691FAA1F1B1FA81F1C14648F821002D
:10214000FFF770F9804605E0FFF76CF9A0EB080097
:10215000022848D897FAA7F0B0FA80F040F02000A3
:10216000400902D0286801E056E0686A97FAA7F1B2
:10217000B1FA81F101F01F0106FA01F10842E3D141
:10218000D4E908100843696821F4741108436860B1
:102190009AFAAAF0B0FA80F049F82060FFF742F905
:1021A000044604E0FFF73EF9001B02281BD897FA0B
:1021B000A7F0B0FA80F040F02000400901D0286874
:1021C00000E0686A97FAA7F1B1FA81F101F01F0106
:1021D00006FA01F10842E5D01EE000BFFFF722F940
:1021E000001B022802D90320BDE8F88F97FAA7F058
:1021F000B0FA80F040F02000400902D0286801E0E9
:102200000CE0686A97FAA7F1B1FA81F101F01F01B9
:1022100006FA01F10842E1D10020E5E70120E3E7F9
:102220002DE9F041040005D00025A56294F85D0079
:1022300018B107E00120BDE8F08184F85C50204629
:1022400000F04AF8022384F85D302068016821F02C
:1022500040010160E0684FF4E066B04201D900211E
:1022600001E04FF48051B0F5706F02D0B04200D061
:10227000A562276B012227B9B04201D9236300E090
:102280002263D4E901031843D4E9043633431843E5
:10229000238B03F400731843E3691843236A18433C
:1022A000A36A184323681860636B606AA6691843C1
:1022B0000427E36807EA16463343184308432168B6
:1022C00048602068C16921F40061C161256684F815
:1022D0005D200020AFE7000000B500680E4987B020
:1022E000884217D10D48816941F48051816180692C
:1022F000694600F480500590E02000900220019093
:102300000020029003200390052004904FF090409D
:10231000FEF7BAFF07B000BD0030014000100240D8
:102320004FF0E0210428086903D020F00400086180
:10233000704740F00400FAE7704710B5401EB0F156
:10234000807F01D3012010BD4FF0E02460610F2198
:10235000601700F03FFD0020A061072020610020F1
:1023600010BD10B5FFF7E8FF10BD7047704770470C
:1023700030B590F83C20012A1FD0012280F83C2083
:102380000268536894680E4DAA4202D00D4DAA42CD
:1023900003D123F470054B682B4323F070050B68C1
:1023A00089682B4324F080042143536002689160C4
:1023B000002180F83C10084630BD022030BD0000EE
:1023C000002C01400034014010B5040003D094F803
:1023D0003D0010B107E0012010BD002084F83C0052
:1023E000204600F00DF8022084F83D00211D2068F1
:1023F00000F0B4FF012084F83D00002010BD000073
:1024000008B501681D48B1F1804F11D01C4A9142B6
:102410001DD1C16941F00201C161C069002200F013
:102420000200009002211D20FFF75EF91D201FE031
:10243000C16941F00101C161C069002200F00100E1
:10244000009001211C20FFF74FF91C2010E00D4ADD
:10245000914211D1C16941F00401C161C0690022FA
:1024600000F00400009002211E20FFF73DF91E201D
:10247000BDE80840FFF72CB908BD0000001002407D
:1024800000040040000800400168CA6842F00102F0
:10249000CA600068016841F00101016000207047D6
:1024A0000168CA6822F00102CA600068016A41F24C
:1024B0001112114207D1016A9210114203D1016831
:1024C00021F00101016000207047000070B5044652
:1024D00090F83C00012817D0012584F83C500220D8
:1024E00084F83D0022689068364E304020F47F40EA
:1024F00090600868502839D00DDC20285BD005DCBE
:1025000098B3102843D153E0022070BD302855D035
:1025100040283CD141E0602830D070280CD0B0F584
:10252000805F03D0B0F5005F31D112E02068816890
:10253000244A7032114016E0CB68D1E901212068AD
:1025400000F064FF21688868304040F077008860C0
:102550001DE0CB68D1E90121206800F057FF206819
:10256000816841F48041816011E01EE0CA684968D9
:10257000206800F05DFF5021206806E0CA684968C5
:10258000206800F066FF6021206800F049FF84F8B1
:102590003D50002084F83C0070BDCA68496820683E
:1025A00000F046FF40212068EFE700212068ECE7BB
:1025B00010212068E9E720212068E6E73021206823
:1025C000E3E7000088FFFEFF704770B5044600682F
:1025D00001694FF00005C943890715D4C168C94393
:1025E000890711D4E91E01610120207720688069E4
:1025F0008007204602D0FFF7E7FF04E000F0A7F8CD
:10260000204600F0A5F8257720680169C9434907ED
:1026100017D4C168C943490713D46FF0040101619D
:10262000022020772068806910F4407F204602D085
:10263000FFF7CAFF04E000F08AF8204600F088F8AF
:10264000257720680169C943090716D4C168C943C1
:10265000090712D46FF00801016104202077206877
:10266000C0698007204602D0FFF7AEFF04E000F00B
:102670006EF8204600F06CF8257720680169C943A0
:10268000C90617D4C168C943C90613D46FF0100135
:102690000161082020772068C06910F4407F20463F
:1026A00002D0FFF791FF04E000F051F8204600F05F
:1026B0004FF8257720680169C943C90708D1C16867
:1026C000C943C90704D1891E0161204600F041F8C1
:1026D00020680169C943090609D4C168C9430906CC
:1026E00005D46FF0800101612046FFF73FFE2068AE
:1026F0000169C943C90509D4C168C943090605D49C
:102700006FF4807101612046FFF72FFE2068016998
:10271000C943490609D4C168C943490605D46FF0C5
:1027200040010161204600F015F820680169C943A5
:1027300089060BD4C168C943890607D46FF020010C
:1027400001612046BDE87040FFF711BE70BD7047C3
:1027500070477047704770477047000070B5036856
:102760000446D869196810F00F0508D1820606D50D
:102770008A0604D52046BDE8704000F033BF9A6851
:10278000002D66D002F0010501F490762E4360D052
:10279000C60707D0CE0505D501261E62E36E43F0BD
:1027A0000103E366830708D5D30706D02668022312
:1027B0003362E36E43F00403E366430708D5D207B0
:1027C00006D0236804221A62E26E42F00202E26638
:1027D00002070AD501F020022A4306D02368082206
:1027E0001A62E26E42F00802E266E26E002A29D026
:1027F000800604D5880602D5204600F0F3FEE06E80
:10280000000703D42068806840061CD5204600F0ED
:10281000CEFE20688168490611D5816821F040010B
:102820008160606E58B11C494163606EFEF7E6FC42
:10283000002807D0606E416BBDE870400847204615
:10284000FFF78AFF70BD2046FFF786FF0020E06695
:1028500070BDC5020ED552020CD54FF4801018621F
:10286000202084F8690084F86A002046BDE87040A2
:10287000FFF771BF020606D50A0604D52046BDE85B
:10288000704000F0D5BF4006E2D54806E0D52046AE
:10289000BDE8704000F099BE9B35000810B50400FB
:1028A00003D094F8690010B107E0012010BD0020AA
:1028B00084F86800204600F027F8242084F8690096
:1028C0002068016821F001010160204600F0C6FE89
:1028D0000128EBD0606A10B1204600F0CCFD2068E2
:1028E000416821F4904141602068816821F02A010B
:1028F00081602068016841F0010101602046BDE867
:10290000104000F01CBE000000B50068124987B0FE
:1029100088421FD11148C16941F40031C161C069C9
:10292000694600F4003005900C20009002200190D0
:102930000020029003200390072004904FF0904065
:10294000FEF7A2FC002201212620FEF7CDFE262064
:10295000FEF7BEFE07B000BD00440040001002407C
:1029600090F86A30202B36D199B192B190F8683046
:10297000012B30D0012380F868304165A0F8582041
:10298000A0F85A208168FF22B1F5805F03D039B1E9
:102990000BE0012070470169D1B940F2FF1102E05C
:1029A0000169A9B17F21A0F85C100021C166222233
:1029B00080F86A2080F8681001688A6842F0010295
:1029C0008A600068016841F49071016000207047DE
:1029D000A0F85C20E9E70220704770477047FEE7E7
:1029E000F0B589B00C460F49DDE9106591F800E0BB
:1029F0000021DDE90EC705910691CDE9003C079164
:102A000008911346BEF1000F02972246014601D0FD
:102A1000012000E00020CDE9036501F037FB09B09B
:102A2000F0BD00000000002030B5154887B0134904
:102A30000024C0E900140461C46101254462C0E9B6
:102A40000B5418210562C0E9021404214463C0E953
:102A500005148463FEF7C4F900B1FEE70720CDE951
:102A60000204009501950494694605480594FDF714
:102A700053FE002800D0FEE707B030BD0001005033
:102A8000E80000202DE9F043564887B0416941F441
:102A900000114161416901F400110591416941F45E
:102AA00000214161416901F400210591416941F42E
:102AB00080014161416901F480010591416941F45E
:102AC00000314161416901F400310591416941F4EE
:102AD00080114161416901F480110591416941F41E
:102AE000802141614069404F00F480204FF6087416
:102AF0000590002221463846FEF78FFCDFF8EC8077
:102B000040F2EF36002231464046FEF786FCDFF801
:102B1000E090002247F6F0714846FEF77EFC012562
:102B2000CDE9004500240294694638460394FEF737
:102B3000ABFB302000902F48CDE9010469463846B0
:102B4000FEF7A2FB0096CDE9015469464046039486
:102B5000FEF79AFBCDE9005469464FF0904002948D
:102B6000FEF792FB4FF4FE400090CDE90154694618
:102B700048460394FEF788FB0F2000901E4802266B
:102B8000CDE9010669464846FEF77EFBF020039436
:102B90008DE8610069464846FEF776FB0022012178
:102BA0000620FEF7A1FD0620FEF792FD002201217E
:102BB0000720FEF799FD0720FEF78AFD002201217C
:102BC0000820FEF791FD0820FEF782FD002201217A
:102BD0000920FEF789FD0920FEF77AFD07B0BDE860
:102BE000F083000000100240001000480008004878
:102BF000000C00480000121000001110114810B520
:102C00000F4901601049416000210122C0E9021210
:102C1000016141618161C1610162FEF75DFC00B14A
:102C2000FEE700210748FEF703FC00B1FEE70021A4
:102C30000448FEF728FC002800D0FEE710BD000085
:102C4000005400403C0100200E090020104810B53F
:102C50000E4901604FF48271416000214FF44072CF
:102C6000C0E902124FF400720161C0E905120822A6
:102C7000C0E9072107234162C0E90A13C0E90C1229
:102C8000FFF7CEFA002800D0FEE710BD003001406B
:102C90008801002010B5134888B04FF080410160D2
:102CA00047210024C0E901144FF47A71C0E90314EC
:102CB0008461FFF789FB00B1FEE74FF48050039079
:102CC00003A90848FFF702FC00B1FEE7009469463B
:102CD00004480294FFF74CFB002800D0FEE708B040
:102CE00010BD0000EC01002010B5144888B0124956
:102CF000016041F61F410024C0E9011442F2107145
:102D0000C0E903148461FFF75FFB00B1FEE74FF4F5
:102D10008050039003A90948FFF7D8FB00B1FEE7F4
:102D20000094694605480294FFF722FB002800D072
:102D3000FEE708B010BD0000000400402C02002097
:102D400010B5144888B01249016040F2CF21002428
:102D5000C0E9011442F21071C0E903148461FFF765
:102D600033FB00B1FEE74FF48050039003A90948FC
:102D7000FFF7ACFB00B1FEE70094694605480294FA
:102D8000FFF7F6FA002800D0FEE708B010BD0000FB
:102D9000000800406C0200200C4810B50A49016090
:102DA0004FF416514160002181600C22C160C0E9DE
:102DB00004128161C16101624162FFF76FFD002869
:102DC00000D0FEE710BD000000440040AC0200202F
:102DD000FEE770470907090E002806DA00F00F0029
:102DE00000F1E02080F8141D704700F1E02080F829
:102DF000001470477047704710B5FEF7EFFBBDE851
:102E00001040FFF7AEBA000030B59FB0032000902D
:102E10004FF4A0200024CDE90104012004901020EB
:102E2000059002250003CDE907504FF4E01009900A
:102E30006846FEF72DFF00B1FEE70F20CDE919052A
:102E40004FF48060CDE91B40022119A81D94FEF7C4
:102E500015FE00B1FEE70F480A9040121894139037
:102E60000D9411940AA8FEF7FDFC00B1FEE7FEF7F1
:102E7000A7FE4FF47A71B0FBF1F0FFF75EFA042081
:102E8000FFF74EFA00221146501EFEF72DFC1FB030
:102E900030BD0000A20002001448016841F4700136
:102EA00001601348016841F0010101604168114A65
:102EB000114041600168104A11400160016821F42D
:102EC00080210160416821F4FE014160C16A21F066
:102ED0000F01C162016B094A114001630021816049
:102EE0000249C003803908607047000088ED00E0A7
:102EF000001002400CC07FF8FFFFF6FECCFC00FF84
:102F00002DE9F0473A48FFF760FB3A48D0ED000A58
:102F1000394890ED000AF4EEC00AF1EE10FA01DC37
:102F2000B0EE600AF2EE040A344C20EE200ADFF81C
:102F3000D080206C4FF40077BDEEC00A0A2610EE58
:102F4000105AE8B1012827D02E4D4FF4807902287D
:102F50003BD0032812D1012249464046FEF75DFAD4
:102F6000286890FBF6F106FB110001F073F90022CE
:102F700039464046FEF751FA00212164BDE8F0874A
:102F8000012239464046FEF748FA95FBF6F001F07B
:102F900061F90022402111E0012240214046FEF764
:102FA0003CFA95FBF6F006FB105001F053F90022B5
:102FB00080214046FEF731FA012216E04046FEF736
:102FC0002CFA206C401C2064D8E701228021404666
:102FD000FEF723FA286890FBF6F001F03BF9002297
:102FE00049464046FEF719FA00222021E6E7000094
:102FF000EC010020340000203000002040000020C0
:10300000000800483C00002010B50848FFF7DDFA32
:1030100001F03AFA064C206920B100F0A1FE002030
:10302000206110BD01F00AF90120F9E72C0200200F
:10303000400000202DE9F04F2DED028B81B0AB4810
:10304000FFF7C3FAAA4DAB48D5ED000A90ED000A90
:10305000F4EEC00AF1EE10FA01DCB0EE600AB7EE51
:10306000001ADFF89482C1EE000A98ED070AB2EE6A
:10307000048AA24EB8EEC00AA14C4FF0000960EEDF
:10308000880A20EE800ABDEEC00A86ED000A20689C
:10309000642833DA0A2190FBF1F201FB120068BBCD
:1030A000D8F814000221401CC8F81400052001F0D3
:1030B00011FA94A001F0FCF803210B2001F00AFAA8
:1030C00093A001F0F5F803210A2001F003FAD8F8E3
:1030D000140090A1C0F10A02684600F097FC68460F
:1030E00001F0E6F8D8F8100068B10121062001F0DF
:1030F000F1F989A001F0DCF8C8F81090894800685F
:10310000401C1ED039E07C490A207C3100F016FEBC
:103110000121062001F0DEF90A2001F0F9F9012170
:10312000072001F0D7F980A001F0C2F801210E209C
:1031300001F0D0F90A2001F0EBF90120C8F81000E5
:10314000DCE72068642818D10121072001F0C2F9CA
:1031500077A001F0ADF80221052001F0BBF977A0BE
:1031600001F0A6F803210A2001F0B4F968A001F0EB
:103170009FF800F0B3FF00F0CDFE2068A24664285F
:103180007EDD316890FBF1F201FB1200002877D15F
:1031900000F0E6FDDFF8B8B16C4CDBF8001004EB92
:1031A000C10050E902766B480068022801D1FDF7A2
:1031B000DDF86068D8F800104218C8F808202068C8
:1031C000D8F804100144C8F80C10DBF8000009E03E
:1031D00004EBC00353F808CC44F830C053F804CCD7
:1031E000C3F804C0401E0028F2DC481C02D0142999
:1031F00004D005E01320C8F80C0001E0C8F80C90DA
:10320000501C02D0082A04D005E00720C8F80800A6
:1032100001E0C8F80890D8F80C102160D8F8080030
:10322000606000F0A9FD20B3DBF80000D94644F847
:10323000307004EBC0004660304600F009FEC1B2B9
:10324000F8B201F047F9F00723D0032001F060F94C
:10325000D9F80010491CC9F8001000F05BFE95ED8C
:10326000000AF6EE000A30EE200A85ED000A00F0B2
:10327000E5FF3146384601F02FF8D4E9000100E0BF
:1032800029E000F033FD40B132480068012802D047
:1032900003E00220DAE700F0EBFD00F0AFFE154896
:1032A00095ED000AD0ED000AB4EEE00AF1EE10FA56
:1032B00001DDB0EE600A2848D0ED000AF8EEE00A21
:1032C00040EE080ABDEEE00A80ED000AD8F83C1096
:1032D000491CC8F83C10DAF80010491CCAF8001064
:1032E00001B0BDEC028BBDE8F08F00006C02002045
:1032F0003400002030000020400000201800002092
:103300002C000020536E616B652047616D650000E5
:1033100020200000256400002020202020202020E4
:10332000202020002000002057656C636F6D650031
:1033300020202020202020202000000020202020ED
:10334000202020202020202000000000C406002093
:103350003C00002038000020140000202DE9F0433C
:103360000268234B234D244E244C4FF08049984251
:1033700007D0484505D0A84203D0B04201D0A042B2
:1033800003D122F070074A683A431D4FDFF874C03A
:10339000DFF8748098420DD048450BD0A84209D080
:1033A000B04207D0A04205D0B84203D0604501D05A
:1033B000404503D122F44075CA682A434D6922F082
:1033C00080022A4302608A68C2620A688262984266
:1033D00007D0A04205D0B84203D0604501D0404597
:1033E00001D10969016301214161BDE8F083000059
:1033F000002C01400004004000080040003401405F
:1034000000400140004401400048014010B584687C
:1034100042EA032224F47F440A432243826010BD1F
:10342000826822F070020A4342F00701816070470F
:1034300010B5036A046A24F001040462846924F06C
:10344000F00444EA021423F00A020A43846102628F
:1034500010BD10B5036A23F0100303628369046A88
:1034600023F4704343EA023224F0A00343EA01113B
:103470008261016210BD90F82410C90706D001686E
:103480004A68836A22F400321A434A6090F8241092
:10349000890706D501684A68C36A22F480321A4354
:1034A0004A6090F82410490706D501684A68036B02
:1034B00022F480221A434A6090F82410090706D5A6
:1034C00001684A68436B22F400421A434A6090F84C
:1034D0002410C90606D501688A68836B22F48052DD
:1034E0001A438A6090F82410890606D501688A6814
:1034F000C36B22F400521A438A6090F824104906E4
:1035000011D501684A68036C22F480121A434A609C
:10351000016CB1F5801F06D101684A68436C22F442
:10352000C0021A434A6090F82410090606D50168C3
:103530004A68806C22F4002202434A607047F8B562
:1035400000260446C666FDF76DFF05462068006844
:103550006FF07E47000708D52B4600224FF400117C
:103560002046009700F096F960B92068006840078F
:103570000AD52B4600224FF480012046009700F028
:1035800089F908B10320F8BD202084F8690084F887
:103590006A0084F868600020F8BD10B5406A002118
:1035A000A0F85A10A0F85210FFF7D6F810BD016825
:1035B0000A6822F490720A6001688A6822F00102A7
:1035C0008A60202180F86A10704710B501680A6887
:1035D00022F040020A60202180F86910FFF7FEF90E
:1035E000002010BD10B5B0F85C2090F86A3001687A
:1035F000222B05D0886940F008008861022010BDA8
:10360000898C8368B3F5805F01D103696BB1114088
:10361000426D531C43651170B0F85A10491E0904DD
:10362000090CA0F85A1007D015E0436D114019801D
:10363000416D891C4165EFE701680A6822F49072C8
:103640000A6001688A6822F001028A60202180F8FD
:103650006A10FFF7C2F9002010BD00002DE9F0410B
:10366000044610202369A268E6691A4363690021B1
:1036700033431A4323680D461E6849F20C67BE4364
:1036800016431E6022685368E66823F440533343B0
:103690005360236AA2691A4323689E6826F4306641
:1036A00016439E605A4F22685A4B0603BA420CD109
:1036B0001B6B13F0030306D0012B4DD0022B4DD012
:1036C000032B4CD146E0012049E0534FBA420CD1C4
:1036D0001B6B13F440333BD0B3423DD0B3F5003FF6
:1036E0003CD0B3F5403F3AD134E04C4FBA420DD113
:1036F0001B6B13F440232BD0B3F5802F2CD0B3F5E4
:10370000002F2BD0B3F5402F29D123E0444FBA42EC
:103710000DD11B6B13F440131AD0B3F5801F1BD0CF
:10372000B3F5001F1AD0B3F5401F18D112E03D4F7A
:10373000BA4214D11B6B13F4400309D0B3F5800FC8
:103740000AD0B3F5000F09D0B3F5400F07D101E05F
:10375000002004E0022002E0042000E00820E769E5
:103760004FF400439F4226D109281DD2DFE800F024
:103770000508121C151C1C1C1800FEF727FA01E096
:10378000FEF73CFA4100606801EB5001B1FBF0F03C
:1037900081B20AE024496068F6E7FEF747FAF1E7EC
:1037A000606806EB5001F1E7012521F00F00C1F33D
:1037B000420108431CE0092825D2DFE800F0050893
:1037C0000B24102424241C00FEF700FA09E0FEF765
:1037D00015FA06E01549606801EB50010EE0FEF7AE
:1037E00025FA0146606801EB5001B1FBF0F080B2B0
:1037F0002168C86008E0606803EB5001B1FBF0F09D
:1038000080B2D06000E001252846BDE8F0810000CC
:1038100000380140001002400044004000480040D1
:10382000004C0040005000400024F40000127A00D8
:1038300090F86910212901D002207047B0F8521089
:1038400021B18168B1F5805F0BD00CE001680A6896
:1038500022F080020A600068016841F040010160C6
:103860000CE0016961B1C16C4A1CC264026809784C
:10387000A2F8281030F8521F491E0180002070471E
:10388000C16C02680988C1F308011185C16C891CEB
:10389000C164EFE72DE9F041984617460E4604460D
:1038A000069D1DE0681C1BD02DB1FDF7BBFDA0EBF4
:1038B0000800A84214D92068016821F4D071016081
:1038C0002068816821F001018160202084F869006E
:1038D00084F86A00002084F868000320BDE8F081C5
:1038E0002068C06936EA000004D00020B842D9D070
:1038F0000020F3E70120F9E72DE9F0413D48FEF70C
:103900002DFF3D480025012601786F1E3B483C4AAB
:103910003C4C612939D010DC50295DD006DC4129AE
:1039200033D044293FD04D295AD14AE0522950D0B2
:1039300053291DD0572953D10DE0722949D006DCF7
:10394000642930D06D293CD0702949D144E07329D5
:103950000ED0772944D11168012941D1064600785B
:10396000642801D100F084FAC4E90075752018E0DC
:103970001168012934D107460078752801D100F07B
:1039800077FAC4E90065642019E01168012927D19C
:1039900006460078722801D100F06AFAC4E900579F
:1039A0006C2030701CE01168012919D1074600789D
:1039B0006C2801D100F05CFAC4E90056722038701E
:1039C0000EE01068012801D0166009E002201060A6
:1039D00006E0FDF7BBFE03E0E069012807D0E661E1
:1039E000BDE8F041012204490248FEF7B9BFE56194
:1039F000F6E70000AC0200201C0000202800002098
:103A00003800002040000020FEE700000FB4084B03
:103A100010B504A902AA039800F01CF8044602A9F4
:103A2000002000F0C1F8204610BC5DF814FB000037
:103A3000A93B000802E008C8121F08C1002AFAD1F9
:103A400070477047002001E001C1121F002AFBD11E
:103A5000704700002DE9FF4F89B09B4604460025C2
:103A600006E025280BD05A460B999047641C6D1C24
:103A700020780028F5D10DB02846BDE8F08F00274A
:103A8000B8460122474900E0074314F8013F203BB4
:103A900002FA03F00842F7D120782E2819D114F841
:103AA000010F47F004072A280ED06FF02F0220786C
:103AB000A0F1300109290CD808EB880102EB410183
:103AC00000EB0108641CF2E70A98641C50F8048BB0
:103AD0000A9020780028CED0642808D0692806D023
:103AE00075281ED05A460B9990476D1C58E00A99CC
:103AF0004FF00A0901C90A91002802DA40422D213B
:103B000002E0390504D52B218DF82010012103E0B6
:103B1000F90704D02021F7E78A4608AE0DE000211E
:103B2000FAE70A994FF00A0901C90A91F7E74946ED
:103B3000FCF75FFB303106F8011D0028F7D1ADEB33
:103B4000060000F12009780701D44FF00108C845AC
:103B500002DDA8EB090000E000208046002706E017
:103B600008A85A46C05D0B9990476D1C7F1C5745AD
:103B7000F6DB04E030205A460B9990476D1CB8F1F3
:103B80000001A8F10108F5DC05E016F8010B5A4622
:103B90000B9990476D1CB9F10001A9F10109F4DC02
:103BA000641C65E7092801000A68531C0B6010704B
:103BB0007047000030B54B4C85B00D46012903D944
:103BC000A17841F00801A17000F14003024665713F
:103BD0004021002000F092FC607828B1012D03D133
:103BE000A07840F00400A07000F0DCF803200390FF
:103BF0000120019021783C480029E28801886389EE
:103C000041EA0201228942EA030241EA02014288B2
:103C100041EA0201828841EA020101D0C08808E03D
:103C2000C288114302891143428911438289C089A4
:103C30001143014300916946E068FDF725FB3220FE
:103C4000FDF702FB0022E188E068FDF7E6FB0022B9
:103C50006189E068FDF7E1FB2189FF2903D000229B
:103C6000E068FDF7DAFBA078C10615D4032000F068
:103C700055FC0520FDF7E8FA032000F04FFC052075
:103C8000FDF7E2FA032000F049FC0120FDF7DCFA21
:103C9000022000F043FC13E040F0200000F04BF85D
:103CA0000520FDF7D1FAA07840F0200000F043F89D
:103CB0000120FDF7C9FAA07840F0200000F03BF8A1
:103CC000A07840F0200000F036F80420E07000F00A
:103CD00047F800F027F802202071062000F02BF8AA
:103CE00005B030BD00000020D800002070B50B4AA0
:103CF000054600201468032C0FDD0122084B0AE062
:103D000053F83260AE4205D103EBC20676688E42AC
:103D100000D10120521CA242F2DB70BD3C00002009
:103D2000C406002010B5012000F005F8BDE81040E1
:103D30000220FDF789BA002100F0AABB70B50D463C
:103D400000F00700402141EAC000FFF7F4FF002423
:103D50000121285D00F09CFB641C082CF8DB70BD81
:103D60000449C87840F00400C87040F00800FFF72C
:103D7000E2BF0000000000200748084A01681268FE
:103D8000914206D1064940680968884201D1012064
:103D90007047002070470000C40600202400002067
:103DA00020000020234808B5C1682348B1F1904F96
:103DB0000BD0224A914210D1416941F480214161E6
:103DC000406900F48020009008BD416941F4003151
:103DD0004161406900F40030F5E7194A914207D18A
:103DE000416941F400214161406900F40020EAE7A3
:103DF000144A914207D1416941F4801141614069FF
:103E000000F48010DFE7104A914207D1416941F484
:103E100000114161406900F40010D4E70B4A91425F
:103E2000D2D1416941F480014161406900F48000D0
:103E3000C9E7000000000020001002400004004814
:103E400000080048000C004800100048001400481A
:103E5000082806D2DFE800F00404060608080A0A6B
:103E600000207047012070470220704703207047F0
:103E700010B51D4C86B00120A061FFF753FF012152
:103E8000002000F027FB19A000F012FA0221002008
:103E900000F020FB18A000F00BFA1948E16B006855
:103EA00090FBF1F000EB800041001648006800EB49
:103EB000C00202EB001001EB800402210720A4F5F0
:103EC000967400F007FB22460FA16846FFF79EFD9F
:103ED000684600F0EDF90D48FEF7D6FA0C48FEF7FB
:103EE000DFFA06B010BD00004000002047616D659C
:103EF000204F76657221000073636F72653A20006F
:103F0000140000203C000020256400002C0200204A
:103F10006C0200202DE9F05F314E3068416ADFF815
:103F2000C490D9F800000844FCF754F9FCF748F9AC
:103F3000C11700EB51712C4C21F00701401A206091
:103F4000FCF73EF94FF0140A90FBFAF20AFB12005C
:103F5000264D274B284F286083460021DFF894E048
:103F60001A692068D7F800C00CE000BF5EF8318005
:103F7000804506D10EEBC107D7F80480D84500D1A3
:103F80000122491C6145F1DB1A61C2B13068416A06
:103F9000D9F800000844FCF71DF9FCF711F9C11726
:103FA00000EB517121F00701401A2060FCF708F97D
:103FB00090FBFAF20AFB12002860BDE8F09FFFF7C1
:103FC00047FFC1B2287800F085FA2078C00704D0F6
:103FD0000620BDE8F05F00F09BBA0520F9E700007D
:103FE000EC0100202C0000202000002024000020F4
:103FF00040000020C40600203C00002070B51F4C8B
:1040000000224FF47F412046FDF707FA1C491D4A64
:104010001D4D0868126890420AD1486829684FF01F
:104020000102884201DA510322E04FF400711FE0DF
:104030004B6829688B4208D190424FF0010201DDA4
:10404000D10315E04FF4006112E0904208DA8B4290
:104050004FF0010201DD91020AE04FF4805107E0C8
:104060008B424FF0010201DD110201E04FF480416B
:104070002046BDE87040FDF7D0B9000000100048B0
:10408000C406002024000020200000202DE9F05F5D
:104090000AAC94E8E05F0F4CE28023816581E16027
:1040A0000D490E804F80A1F80480A1F80690A1F878
:1040B00008A0A1F80AB0A1F80CC0A1F80EE008B160
:1040C000002000E01020A070BDE8F05F0221102069
:1040D000FFF770BD00000020D8000020234910B574
:1040E0000320086022480221012201600021C0E96A
:1040F0000112C160016141611E490220FFF71EFEED
:104100000021084600F0E6F9022000F001FA002143
:10411000012000F0DFF9022000F0FAF9002102206E
:1041200000F0D8F9022000F0F3F912490320083119
:10413000FFF704FE0F4904201031FFF7FFFD0D4982
:1041400005201831FFF7FAFD0A4906202031FFF754
:10415000F5FD084908203031FFF7F0FD0549BDE8BD
:10416000104028310720FFF7E9BD00003C00002087
:10417000C4060020840000201FB5FDF737FAFEF7C3
:1041800043FEFEF77FFCFEF739FDFEF75FFD254895
:104190002349022201600821C0E901120021C0E97F
:1041A000031281610162FDF7E3FA00B1FEE7FEF759
:1041B000F3FDFEF7C5FDFEF737FCFEF76BFDFEF7DE
:1041C00093FD4FF480435A10511048108DE80F00B2
:1041D000154C43108210C1102046FEF701FC04214B
:1041E0001420FFF7E7FC0122F0212046FDF715F926
:1041F00000224FF470710D48FDF70FF90948B038EF
:10420000FEF742F90A48FEF73FF90A48FCF736FF85
:104210000448012208497038FEF7A2FBFEE70000BF
:10422000005C00401C030020000C0048000800480F
:10423000EC010020E80000201C0000200449C878A0
:1042400020F00400C87040F00800FFF774BD0000C3
:10425000000000202DE9F04100F0010200F002060C
:1042600000F0040500F00804002A00DD0122002E01
:1042700000DD0126002D00DD0125002C00DD0124DC
:104280000A4F01213846FDF7C8F832460221384668
:10429000FDF7C3F82A4604213846FDF7BEF822464A
:1042A0003846BDE8F0410821FDF7B7B800080048DE
:1042B00070B500280FD00446FBF794FF0546002692
:1042C00006E000BF14F8010B012100F0E1F8761CB4
:1042D0006D1EF7D2304670BD2DE9F047DFF85491DE
:1042E0000246DFF85481D9F800000E4682421AD106
:1042F0000846FFF7ADFD03464446D8F80000FFF737
:10430000A7FD83420FD13046FFF7A2FDC1B2D0B264
:1043100000F0E0F82078C00703D0062000F0F8F89D
:104320000BE00520FAE73046FFF792FDC1B2D0B2AC
:1043300000F0D0F841A0FFF7BBFF424D404C286889
:1043400004EBC00050F8040CFFF782FD0246304633
:10435000FFF77EFD3C4F82421AD13868C0B1286811
:1043600004EBC00050F8040CFFF772FDC1B22868DE
:1043700004EBC00010F8080C00F0ACF8286804EB5F
:10438000C00010F8040CC00717D0032000F0C0F8DC
:1043900000266068FFF75CFDC1B2207800F09AF853
:1043A000386880B16068FFF753FD0246E068FFF7A8
:1043B0004FFD82423AD1042034E00220E6E7022099
:1043C00030E003202EE0012212E000BF54F832005A
:1043D000216888420BD16068FFF73AFD034604EB81
:1043E000C2004068FFF734FD834200D10126521C11
:1043F00028688242EADB012EDDD02168D9F800006E
:10440000814213D16068FFF723FD0246D8F800000F
:10441000FFF71EFD824209D12079C00701D0072095
:1044200000E00820BDE8F04700F072B82079C0072E
:10443000C7D1C4E724000020200000202000000095
:10444000C40600203C0000204000002010B50D4CA8
:1044500000226189E068FCF7E0FF0120FCF7F4FE30
:1044600001226189E068FCF7D8FF0120FCF7ECFE2F
:1044700000226189E068FCF7D0FFBDE81040012010
:10448000FCF7E2BE000000201C20FFF754BC000037
:1044900070B50F4C05460A46E188E068FCF7BDFFA1
:1044A0002189FF2903D00022E068FCF7B6FFA0783D
:1044B000C00604D52846BDE8704000F049B8280978
:1044C00000F02CF82846BDE8704000F027B8000046
:1044D00000000020042900D30321074A52799142A9
:1044E00001D3521ED1B2044A1032515C0844C0B20A
:1044F00040F08000FFF71FBC0000002010B5034C07
:1045000020706170A270E37010BD000010000020E8
:1045100010B50121FFF7BCFF012010BD2DE9F041CE
:10452000094E0A4F0546002425FA04F000F0010266
:1045300036F81410F868FCF770FF641C042CF3DBE9
:10454000BDE8F041FFF782BFD80000200000002046
:104550002DE9F041094E0A4F0546002425FA04F0E2
:1045600000F0010236F81410F868FCF756FF641CDE
:10457000082CF3DBBDE8F041FFF768BFD80000204E
:104580000000002002030405060708090A0B0C0DB1
:104590000E0F10100102030405060708090A0B0C90
:1045A0000D0E0F10000000000000000001020304C7
:1045B000060708090000000001020304DC450008AA
:1045C00000000020D8000000343A0008B44600087B
:1045D000D8000020700C0000443A000801000000E0
:1045E00000000000000000000000000000000000CB
:1045F000000000000100000020000000FFFFFFFF9E
:10460000FFFFFFFF7200000000000000000000003C
:104610000000003F0100000000000000000000005A
:104620000100000000000000020000000000000087
:10463000FFFFFFFF0000000001000000000000007D
:10464000000000000000000000000000000000006A
:10465000000000000000000000000000000000005A
:104660001F1F1F1F00000000000000001F1F1F1F52
:104670001F1F1F1F1F1F1F1F040A0A040000000026
:1046800000000000040A0A04040A0A041F1F1F1F76
:104690001F1F1F1F040A0A04000A1F1F1F0E040009
:1046A00001000000100000000000000000127A006D
:0446B0000000000006
:040000050800018965
:00000001FF
